:020000040800F2
:2000000000200020E1080008CD080008CF08000800000000000000000000000000000000F3
:20002000000000000000000000000000D10800080000000000000000D3080008D508000817
:200040003109000800000000310900083109000831090008310900083109000831090008D2
:200060000000000031090008310900083109000831090008310900083109000800000000F4
:2000800031090008000000000000000031090008000000003109000831090008DD03000870
:2000A00031090008310900083109000831090008310900080000000010B5064C2378002B19
:2000C00007D1054B002B02D0044800E000BF0123237010BD4400002000000000DC12000832
:2000E000044B10B5002B03D00349044800E000BF10BDC0460000000048000020DC12000886
:20010000002243088B4274D303098B425FD3030A8B4244D3030B8B4228D3030C8B420DD3D0
:20012000FF22090212BA030C8B4202D31212090265D0030B8B4219D300E0090AC30B8B425D
:2001400001D3CB03C01A5241830B8B4201D38B03C01A5241430B8B4201D34B03C01A5241BC
:20016000030B8B4201D30B03C01A5241C30A8B4201D3CB02C01A5241830A8B4201D38B02F2
:20018000C01A5241430A8B4201D34B02C01A5241030A8B4201D30B02C01A5241CDD2C309B7
:2001A0008B4201D3CB01C01A524183098B4201D38B01C01A524143098B4201D34B01C01A2C
:2001C000524103098B4201D30B01C01A5241C3088B4201D3CB00C01A524183088B4201D396
:2001E0008B00C01A524143088B4201D34B00C01A5241411A00D20146524110467047FFE769
:2002000001B5002000F006F802BDC0460029F7D076E770477047C046F8231B069C466044D2
:20022000C00A704782B0094B596B022211435963596B0A400092009A596B0122114359638E
:200240005B6B1A400192019B02B070470010024030B587B01422002101A801F013F80E4A24
:20026000516B022319435163526B13400093009BC025AD00094C00222900200000F0D4FE3B
:2002800001950023029301220392049301A9200000F010FE07B030BD0010024000040050AF
:2002A000F0B5C64600B590B01C22002109A800F0E9FF1822002103A800F0E4FF314C636D8A
:2002C000314A13406365636B02252B436363636B2B400293029B80235B0003930495FF3B8D
:2002E0009846069306270897284E03A9300000F0A1FE80239B000393049500250595434625
:2003000006930795089703A9300000F093FEE36B802292031343E363E36B13400193019BBA
:200320001B4AC521890053581B021B0A535080231B0413600995174B0A930B950C95A8237B
:200340000D930E950F95144C09A9200000F0F8FE626880239B0413436360E3680F4A134082
:20036000E360E3680E4A1340E36023680D4A1340236023680C4A1340236010B080BCB84698
:20038000F0BDC04600100240FFCFFFFF0004005000E100E01A0610000054004001F8FFFFBC
:2003A000FF7FFFFFFFFFF7FFFFFFFDFF10B5074B1C680748074A084900F029FCC043844269
:2003C00001D0002010BD0120FCE7C046FC77000878080020FC5F00000018000810B5344B7B
:2003E0009B691A073ED5324AD16908200143D1619269D2032ED52E490A68063802430A60C8
:200400002C4A032111702A490A68202002430A609B0648D5264AD36920210B43D361254B50
:200420001B78DAB2032B30D0042A3FD1224B00221A80204B01321A701D4B1A688A431A60AF
:200440005968802212020A435A601A6808210A431A602BE01648026804210A430260154AA6
:200460001170D0E79A07D3D45A07D1D5104A516A1148028894B2013292B20280CAB20F49EA
:200480000A550C4A04211170C2E7094BD969982252000A43DA611A6808210A431A60054B6C
:2004A00000221A7002E0064B01221A8010BDC046005400406A000020740800206C00002087
:2004C0006800002070B51A4C200000F00FFE6368184A134063602368012293432360236817
:2004E000073293432360144D00242C60134B1968053A0A401A60124A01214942802011506D
:200500000130FF3011500F4A146654669466D4669969802252000A439A6100F04DFE0A488E
:2005200000F05AFB00F006FA2C606C60AC6070BD00580040FFFFFFFD10E000E00000014052
:2005400000E100E0001802407808002010B5FFF72DFF002807D00D4B1B680D4A13408022D3
:200560009205934200D010BDFFF7ACFF074A094B9A60094B1968094B19601968084B196043
:20058000126882F308881B689847ECE7001800080000FE2F00ED00E00418000864000020E5
:2005A00060000020F0B5C64600B586B0002305933D4A53781B06917809040B43D178090239
:2005C0000B4316791E4380231B019846B044374B9E4264D91300527912029B799B189BB2A7
:2005E000002B53D0324B1B695B0307D596239B00F318304A1A602E4B2F4A1A6100F06EFB59
:200600000028FBD13000FFF707FE022301930390013B0493322000F089FB05A901A800F08F
:2006200005FC0028F6D1082729E01F4BDD5D7A1C9A5C12021543BA1C9A5C12041543FA1CA6
:200640009A5C120615433A1D9C5C7A1D9A5C12021443BA1D9A5C12041443FA1D9B5C1B0684
:200660001C43322000F062FB2A0023003100012000F090FB0028F4D108360837BFB24645FC
:20068000D3D300F043FB322000F050FB002303E0054A0021D1540133084A9342F8D906B07C
:2006A00080BCB846F0BDC0466C000020FF1700080020024023300000FB8300000708000061
:2006C00010B511E0FFF76EFF144B802252041A60134B1A6808210A431A601A680120024378
:2006E0001A601A680A431A600E4B1B78012BFBD10A4A7F3380214904D150BFF34F8FBFF3FC
:200700006F8F084B00221A70074B1B78DAB2062BD8D0772AD8D1FFF719FFD5E700E100E0BD
:20072000005800406A0000206C00002072B6FEE710B50B480B4B03600023037101334371AE
:200740000122524202612132426160328261036200F000FA002800D110BDFFF7E7FFC0461D
:20076000780800200030024010B5184A116880235B000B43136001E0012909D0134B1A6844
:200780008023DB00110019401A42F5D00121F3E70E4B9A680E490A409A609A6807218A4367
:2007A0009A600A4B9B6838221A42FAD1074A936808490B409360084800F05EFD032000F0DD
:2007C000CDF8002800D110BDFFF7B0FF00100240FFF0FFFFFF8FFFFF0024F40010B500F051
:2007E000E9F8FFF7C1FFFFF71DFDFFF7A1FFFFF72FFD9620400000F02BFD124B1B69DB05CB
:2008000003D4104B1B699B050ED5FFF79FFEFFF747FD0D4B1A6801210A431A601A68073155
:200820000A431A60FFF74CFFFFF73AFD064B196801220A431A60196808220A431A60FFF75F
:200840003FFFC046000400500054004082B00A4B196C012211431964196C0A400092009A71
:20086000DA6B802149050A43DA63DB6B0B400193019B02B07047C0460010024082B002689C
:20088000074B9A4201D002B07047064B9A6B802149010A439A639B6B0B400193019BF2E70B
:2008A00000300240001002400268054B9A4200D07047044A936B04490B409363F8E7C04698
:2008C0000030024000100240FFEFFFFFFEE7FEE77047704710B500F081F810BD704700007E
:2008E0000D488546FFF7FAFF0C480D490D4A002302E0D458C4500433C4188C42F9D30A4AA2
:200900000A4C002301E013600432A242FBD300F0C1FCFFF763FFFEE70020002000000020D8
:20092000440000201013000844000020BC080020FEE7704710B5084B01214942D962002222
:20094000DA6219631A6399629A6259625A62FFF7F0FF002010BDC0460010024010B5040001
:20096000114B1978002901D1012010BDFA208000FFF7C6FB01000D4B1868FFF7C1FB00F0D5
:200980008FF800280DD1032C01D90120EDE7013000222100404200F07FF8054B1C60002083
:2009A000E3E70120E1E7C04604000020000000200800002010B5084A116880235B000B4336
:2009C00013600320FFF7CAFF041E02D00124200010BDFFF73BFFFAE700200240034B1B7868
:2009E000034A11685B1813607047C046040000209C080020014B18687047C0469C08002059
:200A000070B5002811DB8308134DC0339B005C5903221040C000FC3216008640B4438901AF
:200A20000A40824022435A5170BD0F230340083B9B0806339B00094A944663445C68032281
:200A40001040C000FC3215008540AC4389010A40824022435A60E7E700E100E000ED00E07E
:200A6000013880235B0498420FD2094A50600948036A1B021B0AC02109060B4303620023B7
:200A8000936007331360002070470120FCE7C04610E000E000ED00E010B5FFF7B1FF10BD00
:200AA00010B5FFF7DDFF10BD70B500250EE0AC000B5D1B060C19667836043343A67836025C
:200AC0003343E67804683343236001359308AB42EDD803231C001440134205D0012C06D097
:200AE000022C09D0032C10D00368186870BDAB000268CB5C1370F3E7AB00CA5CCB185B78A8
:200B00001202134302681380ECE7AD004A5D49194B78120213430268138003688A781A70C4
:200B2000E2E770B5002508E0AC000B5B1B040C19668804683343236001355308AB42F3D8C8
:200B4000D20703D50368AD006A5A1A800368186870BD000010B5041E39D0437F002B25D084
:200B6000022363772379002B24D12368194A5A612268936818218B4393606379002B22D198
:200B80002368012252421A612268936860218B4361690B4393602268936880218B43A169BB
:200BA0000B43936001236377002010BD0377FFF765FED5E7E268A168200000F050F80028A7
:200BC000DBD00120F1E7236822691A61DCE70120EBE7C046B71DC10470B5041E15D0437F9D
:200BE000D8B2022B10D0022363772268936801210B43936023685A6800255D602000FFF732
:200C000053FE65772577002070BD0120FCE770B50400022343770068836801252B438360E8
:200C2000236A022B17D0032B0FD0012B0FD000200123637770BD20689D006D58056001332D
:200C40009342F8D323681868F2E70023F8E72000FFF72AFFECE72000FFF763FFE8E730B5D0
:200C60001F231C00013B002C06D01F241C400D00E5402C00E407F4D5102A18D009D8002AFA
:200C80000BD0082A03D10F2B07D901200EE001200CE0182A0FD1062B0FD803685961016875
:200CA0008B681820834313438B60002030BD072BF3D90120FAE70120F8E70120F6E70000F7
:200CC00030B5054C61690125294361610260BFF36F8F436030BDC04600200240084B5B699F
:200CE000002B01DB00207047054B064A9A60064A9A605B69002B01DB0020F4E70120F2E772
:200D00000020024023016745AB89EFCD064B5969802212060A435A615B69002B01DB0120F0
:200D200070470020FCE7C0460020024070B50500FFF760FE4419134B1B69DB0305D5FFF726
:200D400059FEA042F7D3032070BD0E490A690E4B14001C400D4808611A4203D00C4B5C60AD
:200D60000120F1E7FFF746FE4519064B1B695B0305D5FFF73FFEA842F7D30320E4E70020E0
:200D8000E2E7C04600200240FA830000FB830000A0080020F8B507000C0015001E00144B0D
:200DA0001B78012B22D0124B01221A7000225A60FA208000FFF7BAFF00280DD1012F0FD03E
:200DC0002900200000F098FAFA208000FFF7AEFF084A5369BB435361054B00221A70F8BD9A
:200DE0002A0033002000FFF76BFFEDE70220F6E7A008002000200240034A5369034380202A
:200E0000400218435061704700200240044A536904480340C9001943034B0B4353617047A6
:200E20000020024007E0FFFF0200010070B504000E001E4B1B78012B36D01C4B01221A70EF
:200E400000225A60FA208000FFF770FF002827D1042363602368042B14D001235B423360BB
:200E6000A568A368E2689B18AB4214D960682900FFF7CCFFFA208000FFF758FF002809D1E8
:200E80000135EEE70430FFF7B7FFFA208000FFF74DFF05E03560064A536902218B43536160
:200EA000024B00221A7070BD0220FCE7A008002000200240F0B5002359E086685F00032468
:200EC000BC40A643CC68BC4034438460446894434E683609012232409A402243426056E07E
:200EE000DE080836B600375805321A4092000F249440A7430C69944022003A43325059E0D2
:200F0000032600E00026A64034003C43424E1832920094513768EA433E00AE434C68E40223
:200F200001D53E002E433C4C266067683E0016404C68A40201D53E002E43374C66608426E9
:200F4000A7593E0016404C68A40301D53E002E43314C8427E6518026A65932404C68E4030C
:200F600001D52A0032432C4D80242A5101330C682200DA404ED001229A4025001540144295
:200F8000F4D04E6803243440013C012C95D94C6803222240032A08D0C4685E000322B24083
:200FA00094438A68B2402243C2604C6803222240022A95D004685E0003221700B740BC4327
:200FC0004F683A40B240224302604C68C02292021442CBD09A0814001834A4000E4EA7590A
:200FE00003241C40E4000F26A640B743A026F605B04287D0094EB04208D0094EB04207D02A
:20100000084EB04200D17BE705267CE701267AE7022678E7F0BDC046001802400004005057
:2010200000080050000C0050002A01D0816170478162FCE7F0B5002216E00B699C46C46863
:201040002B006B435E00F618F743B44366465E433443C4604C68022C25D04D6804683C40BE
:201060006B432343036001320C682300D3403AD00123934025001D401C42F4D04B68013B88
:20108000012BDAD88F6883682C006C4366003619B3437C4323438360CC684368AB436C4386
:2010A00023434360C9E7FF2D0DD84C69A446066A1C006C436C4325012D1BAE4365466C4324
:2010C00034430462C9E74C69A446466A2D0A2C006C436C436C4325012D1BAE4365466C430B
:2010E00034434462B9E70020F0BD00000F4B984204D00F4B98420DD0012070470D4BD96ADA
:20110000802292030A43DA62DA6A0B490A40DA620020F2E7074BD96A8022D2030A43DA6263
:20112000DA6A06490A40DA620020E6E7005400400058004000100240FFFFDFFFFFFFBFFF93
:2011400070B503680125AB4303608A68CC680368164E334024022243134303604B680361C5
:2011600003682B4303608368114A134083600A698C698368DB0ADB022243134383600B6990
:20118000002B04D0826880231B02134383600B680268084C2240134303604B694268044976
:2011A0000A4013434360002070BDC046FFE0FFFFFF7FFFFFFFFFCFFF234A116880235B0090
:2011C0000B43136001E0012B09D01F4B19688022D2000B0013401142F5D00123F3E71A4A31
:2011E00050681A4908408021C90101435160002191600131FF31116001E0002809D0124A09
:20120000116880229202080010401142F5D01800F3E70D4A80214900116001E0002809D029
:20122000094A116880229204080010401142F5D01800F3E7044B80225201DA6000229A61AD
:20124000013A1A627047C04600100240FF80FFFF82B0084B1B680193019B431C00D00130B3
:20126000002805D0034B1B68DB03F9D50138F7E702B0704710E000E0014B18607047C04623
:201280000000002003008218934200D1704719700133F9E770B500260C4C0D4D641BA41067
:2012A000A64209D1002600F019F80A4C0A4D641BA410A64205D170BDB300EB58984701366E
:2012C000EEE7B300EB5898470136F2E708130008081300080C13000808130008F8B5C04611
:2012E000F8BC08BC9E467047F8B5C046F8BC08BC9E4670470000000001B40248844601BC8F
:20130000604700BF0D000020E1000008B90000080024F400010000000400000010B50C4A58
:2013200054698023DB0223435361EFF3108472B6002303E004C904C00133DBB23F2BF9D924
:20134000034B1B69DB03FBD484F3108810BDC04600200240FFFFFFFFFFFFFFFFFFFFFFFFD6
:20136000FFFFFFFFFFFFFFFFFFFFFFFFFFFFFFFFFFFFFFFFFFFFFFFFFFFFFFFFFFFFFFFF8D
:20138000FFFFFFFFFFFFFFFFFFFFFFFFFFFFFFFFFFFFFFFFFFFFFFFFFFFFFFFFFFFFFFFF6D
:2013A000FFFFFFFFFFFFFFFFFFFFFFFFFFFFFFFFFFFFFFFFFFFFFFFFFFFFFFFFFFFFFFFF4D
:2013C000FFFFFFFFFFFFFFFFFFFFFFFFFFFFFFFFFFFFFFFFFFFFFFFFFFFFFFFFFFFFFFFF2D
:2017E000FFFFFFFFFFFFFFFFFFFFFFFFFFFFFFFFFFFFFFFFFFFFFFFFFFFFFFFFFFFFFF0107
:2018000000200020E94C0008194B00081B4B00080000000000000000000000000000000071
:201820000000000000000000000000001D4B000800000000000000001F4B0008214B000852
:20184000394D000800000000394D0008294B0008394D0008394D0008394D0008394D0008B8
:2018600000000000314B0008394D0008394D0008394D0008394D0008394D0008000000001E
:20188000394D00080000000000000000394D000800000000394D0008394D00084D3F00087C
:2018A000394D0008394D0008394D0008394D0008394D00080000000010B5064C2378002B85
:2018C00007D1054B002B02D0044800E000BF0123237010BD1001002000000000346800089F
:2018E000044B10B5002B03D00349044800E000BF10BDC046000000001401002034680008F3
:20190000002243088B4274D303098B425FD3030A8B4244D3030B8B4228D3030C8B420DD3B8
:20192000FF22090212BA030C8B4202D31212090265D0030B8B4219D300E0090AC30B8B4245
:2019400001D3CB03C01A5241830B8B4201D38B03C01A5241430B8B4201D34B03C01A5241A4
:20196000030B8B4201D30B03C01A5241C30A8B4201D3CB02C01A5241830A8B4201D38B02DA
:20198000C01A5241430A8B4201D34B02C01A5241030A8B4201D30B02C01A5241CDD2C3099F
:2019A0008B4201D3CB01C01A524183098B4201D38B01C01A524143098B4201D34B01C01A14
:2019C000524103098B4201D30B01C01A5241C3088B4201D3CB00C01A524183088B4201D37E
:2019E0008B00C01A524143088B4201D34B00C01A5241411A00D20146524110467047FFE751
:201A000001B5002000F0F0F802BDC0460029F7D076E7704703460B437FD4002243088B422B
:201A200074D303098B425FD3030A8B4244D3030B8B4228D3030C8B420DD3FF22090212BAD9
:201A4000030C8B4202D31212090265D0030B8B4219D300E0090AC30B8B4201D3CB03C01AA0
:201A60005241830B8B4201D38B03C01A5241430B8B4201D34B03C01A5241030B8B4201D350
:201A80000B03C01A5241C30A8B4201D3CB02C01A5241830A8B4201D38B02C01A5241430AAE
:201AA0008B4201D34B02C01A5241030A8B4201D30B02C01A5241CDD2C3098B4201D3CB01CB
:201AC000C01A524183098B4201D38B01C01A524143098B4201D34B01C01A524103098B42F4
:201AE00001D30B01C01A5241C3088B4201D3CB00C01A524183088B4201D38B00C01A5241D1
:201B000043088B4201D34B00C01A5241411A00D201465241104670475DE0CA0F00D049429C
:201B2000031000D34042534000229C4603098B422DD3030A8B4212D3FC22890112BA030A8D
:201B40008B420CD3890192118B4208D3890192118B4204D389013AD0921100E08909C309BE
:201B60008B4201D3CB01C01A524183098B4201D38B01C01A524143098B4201D34B01C01A52
:201B8000524103098B4201D30B01C01A5241C3088B4201D3CB00C01A524183088B4201D3BC
:201BA0008B00C01A5241D9D243088B4201D34B00C01A5241411A00D20146634652415B10C3
:201BC000104601D34042002B00D54942704763465B1000D3404201B5002000F005F802BD2C
:201BE0000029F8D016E770477047C046002B11D1002A0FD1002900D1002802D00021C9434B
:201C0000080007B4024802A14018029003BDC046D9FFFFFF03B4684601B5029800F042F8AF
:201C2000019B9E4602B00CBC7047C0469E2110B5C905041C01F00EFE002803D1201C00F056
:201C4000D1FD10BD9E21201CC90500F067FB00F0C9FD80231B069C466044F2E78023D0B5CD
:201C60009B0304000800994201D3630511D101F01BFD00220A4B01F031FA06000F002000F0
:201C800001F012FD32003B0000F062FE01F030FDD0BDE30A8024DB0224011C43E7E7C04616
:201CA0000000F041F0B557464E464546DE46E0B504000D009246994683B08B4230D82DD00C
:201CC0004946504601F0EEFD29000600200001F0E9FD331A9846203B34D49B4653465A4635
:201CE000934042461F00534693401E00AF423BD8AF4200D179E05B46A41BBD41002B00DA5E
:201D000076E0002200230092019301235A4693400193012342469340009329E08242CFD950
:201D200000220023009201930C9B002B01D01C605D600098019903B0F0BCBB46B246A946E3
:201D4000A046F0BD42469B4620239B1A5246DA40414613004A468A40170042461F4353464F
:201D600093401E00AF42C3D900220023009201934346002BD8D0FB0772081A4346467B0836
:201D80000EE0AB4201D1A2420CD8A41A9D41012024196D410021013E24184D41002E06D0F8
:201DA000AB42EED9013E24196D41002EF8D1009801995B4600196941002B24DB2B005A46C3
:201DC0004446D3402A00E2401C005B461500002B2ADB26009E40330026004746BE403200FE
:201DE000801A9941009001919EE7A342BCD882E74246202300219B1A0022009101920122DC
:201E0000DA40019285E7424620239B1A2A0046469A402300F340444613432A00E2401C00FB
:201E20005B461500002BD4DA42462F002023260097409B1ADE403B003343CDE7F0B54646B3
:201E40004F46D6464502C0B5C30F470098460E1C6D0A3F0E5BD0FF2F21D08023ED00DB0477
:201E60001D43002399469A467F3F74027300640A1B0EF60F002B20D0FF2B43D080220020C3
:201E8000E400D20414437F3B4246FF1A4B4672400F2B00D99DE071499B00CB589F46002D79
:201EA0005AD108239946063B74029A467300FF27640A1B0EF60F002BDED1002C3BD10123EB
:201EC00042464946724019430E2918D86448890041588F465346022B00D1B8E0032B6ED078
:201EE00042462C00012B40D100200024C0052043D2071043E0BCBA46B146A846F0BDFF200C
:201F00000024F3E7002C20D10223FF3FD8E7002D05D104239946033B00279A46A5E7280082
:201F200001F0A2FC7627431F9D4000237F4299469A463F1A99E7200001F096FC431F9C40D9
:201F400076235B421B1A00209EE703234A461A4391460320FC3397E70C239946093BFF273F
:201F60009A4682E703282CD0320038007F30002847DD630704D00F232340042B00D0043482
:201F8000230103D53800374B80301C40FE28B6DCA401640AC0B2A9E780240022FF20E403E6
:201FA000A4E78023DB031D4201D01C420BD08024E4032C4364024246FF20640A96E746462E
:201FC0002C008023DB031C4364023200FF20640A8CE76D01600185422DD21B230024013F26
:201FE0000126290064006D00002901DB854201D32D1A3443013B002BF3D16B1E9D412C4361
:20200000B3E701231B1A1B2B00DD6DE721009E37D940BC400B00611E8C412343590704D05A
:202020000F211940042900D00433590113D49B0100205C0A5AE71A2301242D1AD0E7981E29
:2020400043425841404232000024C0B24EE74246FF2000244AE70120002447E760680008A4
:20206000A0680008FFFFFFF7F0B54F464646D6464400C0B546020F1C760A240EC50F002C9C
:2020800000D1DAE0FF2C74D08023F600DB041E43002399469A467F3C7B025B0A98467B0095
:2020A0001B0EFF0F002B74D0FF2B00D18EE042468021D200C90411437F3B2A00E4184B4684
:2020C0007A408846D2B20A2B75DC4B460020022B0FDD494601238B40A621C9000B4269D10F
:2020E000902189000B4200D000E18821194200D0F5E041460904090C43460800350C36044A
:202100001B0C360C704369435E435D437618030C9B19994203D9802149028C466544000443
:202120001904000C09188E01701E86411B0C890E5B190E439B011E431B016CD423007F33C0
:20214000002B00DCB1E0150071070BD00F2021003040042806D00436320103D56E4B1E4061
:202160000B008033FE2B00DDBDE0B201520ADBB248E0002E00D092E008239946063B9A469F
:202180007B025B0A98467B00FF241B0EFF0F002B8AD14246002A64D1494601321143894658
:2021A0000A2908DC7D400120EAB2022991DC1500002227E015005346022B00D193E0032B6B
:2021C0001AD0012B2CD1002300221BE04346FF34002B55D003214B460B4319000A2B00DC73
:2021E00092E00F2B00D08CE08022D203164203D04346134200D17DE08022D2033243520209
:20220000520AFF23D805ED0710432843E0BCBA46B146A846F0BD0123150071081E400E4322
:2022200023008033611C002B41DD720794D00F223240042A00D08EE78EE7002E05D104236F
:202240009946033B00249A4626E7300001F00CFB7624431F9E400023644299469A46241A88
:202260001AE7404601F000FB4B46241A763C0A2BA1DC4346053883407D409846EAB224E7ED
:202280004A46023313432A007A40D2B20A2B92DC49461500002926D09946022019E70C2325
:2022A0009946093BFF249A46F6E6150021000122D31A1B2B00DD86E79E3132008E40DA405D
:2022C000731E9E413243530704D00F231340042B00D00432530110D50123002292E73D00FC
:2022E0004646824667E7FF2300228BE780220025D20386E73D001A4383E792010023520A67
:2023000080E73D00464677E72A0001237A408B400320D2B2E9E6C046FFFFFFF7F8B54746B2
:20232000CE46430280B55F0A9B0945004A009C464B02C40FCE0F2D0E580A120E9909FF2A0C
:202340006BD001235E40AB1AB4424BD0002B00DCFFE0002A00D188E0FF2D00D1EFE08022F3
:20236000D204114301201B2B08DC08002022D840D31A99400B005A1E9341184363461B1A30
:202380009C4663465B0100D4CDE063469F01BF09380001F069FA3B0005388340854200DC5A
:2023A000A2E0B74A2D1A1A4094465A0700D1C3E00F221340042B00D1BEE004239846C4441B
:2023C00063465B0100D4B7E0681CFE2D00D0A5E0FF200022C0051043E4072043C0BCB94667
:2023E000B046F8BD002B00DCEBE1002A46D0FF2D00D1A4E08022D20411431B2B00DCFBE0D5
:20240000052398462B00C4446246D708FF2B00D195E07A02520AD8B2DCE72B00FF3B994623
:20242000002918D101235E40B44200D1CAE04B46002B2DD0002D00D03CE1FF236446002C8C
:2024400000D15FE15D1E012B00D174E13400FF2B74D02B0003E1B44200D19CE0002B17D098
:20246000002DEAD0070034006CE00029CCD05A1E012B2BD0FF2B62D0130073E70029C3D005
:202480005A1E012B00D11EE1FF2B58D01300B4E7FE226B1C1A420DD1002D60D06346002BB6
:2024A00000D020E1002900D028E180220024FF20D2038FE763465F1A7B0100D5FEE0002F99
:2024C00000D065E700240020002283E76346591A4B0100D419E18F01BF09380001F0C4F99C
:2024E0003B000538834001252022401B0130121A19009340C1405A1E934119438C460B1EF1
:20250000E1D05B0700D152E10F2300250B40042B00D052E701204A0100D492E0C0B26346FD
:202520009A01520A56E763465B0705D00F2362461340042B00D040E72B0065E70700002F87
:2025400000D145E78022D2033A435202FF20520A40E7002B79D1FE226B1C1A42AAD16346F8
:20256000002B00D1F5E0002900D1D1E05F1A8023DB041F4200D10EE1624601248A1A944678
:2025800000203440002A00D124E701201A42C6D10023D7083DE7002B17D0002D00D0AFE0C9
:2025A000FF236546002D00D1ADE05E1E012B00D189E0FF2BC2D01B2E00DCABE04B1D9C462B
:2025C000130021E74B46002B70D1FE226B1C1A425ED1002D00D0C3E06346002B00D1D0E0BC
:2025E000002900D194E00A006244530100D4D8E092010120520AEDE608002022D840D31AAB
:2026000099400B005A1E934103439C4463465B0189D50135FF2D00D1DAE6624601231949E0
:20262000134052080A401A43130094465B0704D00F231340042B00D0BFE663465B0100D520
:20264000C2E66346DF082B00E3E6531B002D00D1F4E680206446C0040443A4463400012074
:202660001B2B09DC20256046D840EB1A65469D402B005D1EAB4118430B1A9C46150080E630
:20268000FFFFFFFBFFFFFF7DFE226B1C1342A3D0FF2B00D19CE6614449084A0749D00F224B
:2026A0000A40042A45D00A1D9446ADE6002D00D176E78DE63400FF2000228BE66346012477
:2026C000CF1A344064E661444B016DD548084449014043072CD00F230340042B28D00B1DF8
:2026E0009C46022390E6002900D12BE78023DB039F4200D226E7984200D323E701243440C0
:2027000007001FE734008C467EE60123CF0880E600237EE620206546801B8540634628003E
:20272000F340451EA84103439C4615008C446DE70223CF086DE60F1B7B0128D5BF01BF093F
:20274000380001F091F83B000538834034000125CAE6002900D1B5E601240700344058E60F
:202760006346002B00D1E9E6002900D1EAE68023DB039F4200D2E5E6984200D3E2E60700A0
:20278000E0E6002900D19EE60023CF0841E634000123FF083DE6002F00D193E60023FF08AF
:2027A00037E60023D70834E60123CF0831E680220B00D20401201340114200D0AEE6CF0849
:2027C00027E6002B00D15FE7561B002D01D13300E7E680236046DB0418438446EBE6C04616
:2027E000FFFFFF7D41024200C30F490A0020120E7E2A03DD9D2A02DD094A981870478020ED
:2028000000040143952A07DC9620821AD1404842002BF3D10800F1E7963A9140F7E7C0468D
:20282000FFFFFF7F70B5002812D0C317C5185D40C40F280001F018F89E231B1A962B0FDCFB
:20284000082838D0083885406D026D0AD8B202E0002400200025C0052843E407204370BDD5
:20286000992B14DC421F95402A001549114055071CD00F252A40042A18D00431CA08490148
:2028800015D59F235202181A550AC0B2E3E705222900121AD14002001B3295402A00551E1D
:2028A000AA410A43064911405507E2D1CA085202550AD8B2CFE76D026D0A8E30CBE7C04610
:2028C000FFFFFFFB10B5041E0DD000F0CDFF9E231B1A962B0CDC082834D008388440640243
:2028E000640AD8B201E000200024C005204310BD992B13DC421F9440144A224061071CD0CA
:202900000F212140042918D00432D408520115D59F236402181A640AC0B2E6E70200210098
:202920001B3291400A00511E8A410521091ACC401443064A22406107E2D1D4086402640A0C
:20294000D8B2D2E76402640A8E30CEE7FFFFFFFBF0B54F464646D646C0B582B0009001914A
:202960000E034C00CD0F710A009E5F00760F0E43009900920193C900894619037B0D9846F7
:20298000019B490ADB0F9C46009B009A5B0F0B434146640DD200611A654500D1A6E0002920
:2029A00072DD4746002F00D1DDE0CC4FBC4200D19AE10127382917DC80273F043B431F29ED
:2029C00000DDDDE12027781A1F008740BA461700CF40844638005746074360468240CB401B
:2029E000501E8241F61A17434B46DF1BB94580414042361A330200D4FFE07602760A002E12
:202A000000D13CE1300000F02FFF0300083B20213800CA1AD0409E4002009F4032439C42B5
:202A200000DDA6E1181B0130091A3E008F40C6407B1E9F4113008B4037431F43C2403B0028
:202A400016000024134300D1DFE17B0700D132E30F233A003B40042B04D03A1DBA42BF41B0
:202A60007F42F619330200D423E39C4B01349C4200D1B4E09A4B64051E40640D7707D208A3
:202A800076021743360BACE0002900D17EE04146091B002C00D060E134004846044300D17D
:202AA000C9E14C1E012900D12EE28C4DA94200D124E20127382C11DC21001F2900DD0BE2B0
:202AC000202437004846641AA740C84007434846A040CE40441EA0419B1B0743D71BBA4289
:202AE00092415242654644469E1A83E7002900DC9CE04746002F67D11F00174300D1E4E095
:202B0000481E012900D19BE1744FB94200D1EBE001270100382811DC1F2900DDC7E12027F4
:202B2000781A1F00844687401000C840074360468240CB40501E8241F61817434F444F45BE
:202B4000804140423618330257D5644B01349C4245D00121624B7A081E4039400A43F70739
:202B60001743760871E71F00174300D1ADE04F1EBC46012900D182E1584FB94200D190E19D
:202B800061460127382900DD2EE718E7554F611C394200D0D0E0310048461F00014317437C
:202BA000002C00D03DE1002900D1BCE1002F00D0BFE14B460021D80877070743F00806036A
:202BC0004C05360B640D0CE0444FBC4200D18BE001273829B2DC80273F043B439CE7002611
:202BE000002724053443ED072C433800210002B0E0BCBA46B146A846F0BD7B0704D00F23EA
:202C00003B40042B00D028E7F808344B77070743F0089C4200D04AE23B00034359D08026C2
:202C20003603064336032D4C360BDAE7002961D04146091B002C00D1B9E0284CA04500D199
:202C4000A5E10127382913DC8024240426431F2900DDC8E1202437004846641AA740C840FD
:202C600007434846A040CE40441EA0419B190743BF189742924152424446D61863E738003C
:202C800000F0F2FD030018331F2B00DCBFE63A00083882409C4200DD83E01B1B581C1F28F1
:202CA00000DCB4E117001F3BDF40202805D040231B1A9A40531E9A4117430024002F0AD0B1
:202CC0007B0700D0C4E626009EE74B460C00D8089BE70027014C002683E7C046FF0700003E
:202CE000FFFF7FFFFE0700004B467707D8080743F00891E7CD4F611C39426BD1310048469B
:202D00000143002C00D04BE11F001743002900D181E1002F00D14CE74A444A458041F61853
:202D200040423618330200D5B0E117009146374300D03EE7002654E74946891A8846C14564
:202D4000BF41F11A7F42C91B0F0261D447460F4300D1BDE00E00474651E6B54CA04500D1A7
:202D600000E10127382900DDB8E6802424042643A3E6B04EE41A16407B0700D03FE743E7BC
:202D80000F001800203FF8408446202903D04027791A8B401A43531E9A41634617001F43FF
:202DA00022E6A448E11A10404707C00807E734004846044300D1FAE04C1E012900D1D7E000
:202DC0009B4FB94200D1E2E00127382C00DD4FE721003CE7964CA14200D1DDE04A444A4528
:202DE0008041F31840421818C707520817434608520705D00F220C003A40042A00D02CE690
:202E00007607FF0837430009D9E600270026E8E64946571ABA4292419E1B52426546B61A3A
:202E2000EDE5002900D0C6E0002F67D1802600257F4C3603D5E665460C001E00D008E4E6B9
:202E40004A444A458041F318404218181100030200D496E0774B49081840C3070B434408A8
:202E6000490700D129E10F221A40042A00D1EAE01F1D9F42B641764236190224C4E6494659
:202E80008F1AB9458041F61A4042361A330206D47307FF0801211F43F00890E66546012496
:202EA000ABE54B467707D8080743F008B4E60F001800203FF8408446202903D04027791A19
:202EC0008B401A43531E9A41634617001F4335E600250024002684E60C003500203CE540A6
:202EE000202905D04024611A8E404946314389464846411E884107002F43EFE5D2085F07F2
:202F000065461743D80887E6171ABA4292419E1B5242B61A3302C1D47307FF08654601212A
:202F20001F43F0084BE6002F7BD065461E0091463FE6811A8846C145A441F11A6442091B9E
:202F400080242404214277D0101A8242924107009E1B5242B61A374300D0A0E0654600247D
:202F600000263EE65F07D20865461743D80853E6811891429241F01852428018030200D55C
:202F800068E74707C9080F43C008012117E6D2085F071743D8083FE60C000026002720E68C
:202FA000002956D15F07D2081743D80834E60C001E00D00829E6C10870070143F008002F71
:202FC00062D080242403204207D0DE08264204D165463000D1085B0719434F0FC900C9082E
:202FE0007F070F4318E60C003000203CE0408446202905D04024611A8E40494631438946DC
:203000004846411E8841614607000F4330E620210027091A0EE51E00002F00D022E500241E
:2030200058E7002500240026DBE5C046FE070000FF070000FFFF7FFF47460F4300D147E7B7
:203040000E00C146B5E5DF086407022127430009B5E51900C008770707431143F008002921
:2030600000D1D9E580210903084207D0DC080C4204D1D2085B071A43170020007B0FFF0093
:20308000FF085B071F43C7E50F00C5E5124BD20833405F075B02012417431E0BA1E52642FD
:2030A00012D00D4B6546020001241E40E6E4210085E51700A8E53A00D4E4DB0864071C430E
:2030C0002700022100097AE5C0087707074365460021F00873E5C046FFFF7FFFF0B55746CE
:2030E0004E46DE464546E0B51F000B031B0B16009A46CA0F4B000400914685B05B0D00D142
:20310000CFE1CD4A934255D05146420FC9000A43802109041143C2009046C84A8A4693469B
:203120009B440023002502933C037B00FA0F0196240B5B0D009200D188E1BF4A934200D167
:2031400092E0BE4A944663449B440A2D42DCE400730F23438024494624041C43F300019333
:20316000009B00205940CBB20393022D00DC94E00123AB401D00A6232A00DB001A401D42B6
:2031800000D029E290239B001D4200D14DE20023802499462403A84B10004A461B052343C1
:2031A000D2071343190005B0F0BCBB46B246A946A046F0BD52460243904600D0ACE19B46FA
:2031C0000223924608250293AEE7009BA2469946019B9846029B022B00D1CAE1032B00D17A
:2031E00092E1012B10D1002300240022D4E701227B083A4013435246D20713439846534677
:203200005B089A46039B99465B46581C8023DB005B44002B00DCB1E1424652070BD00F2236
:2032200041460A40042A06D04246111D414592418846524292445246D20106D55246804BC9
:203240001A4080239246DB00C3187E4A934200DD8FE14246D108524652070A4351465B0563
:203260004C02240B5B0D97E7734B26439C46E344002E00D16FE1032349461D43009B594023
:20328000CBB203930A2D00DD33E10123AB401D000323029388222A4297D142464346120467
:2032A000120C160001981D0C030C0004000C4643B4461E006E430096160007005E436146AC
:2032C000B0466F430E0CB8444644B74205D9802149028846009F4744009761460904090C8B
:2032E000370C36048C463100614401911100260C2404240C61438C462100694389466146C3
:20330000090C884672434A4442447543914503D98021490288464544110C884661460904B5
:20332000090C8C4612046244B91802915146090C8C4651460F043F0C3900414345448846FF
:20334000614641438A4641466046090C894658437B4353444B449A4503D98021490289466C
:203360004844190C894641460904090C8846390061431B044344884661464C4371438C4649
:20338000414677430E0C3F19F6194844B44203D9802149028946CC440299009F8946310404
:2033A0004F4489464146974292410C04240C4C44FF1852426419A1189F429B418846824674
:2033C0005B42994690459241AC42A441C244D14452426442144399459B41824592415B4259
:2033E000524213434A46360CA419E31863445B02D20D1A43019992467A020A43501E8241AD
:20340000FF0D17434A4652021743B846DB0100D5EDE60D4B039A5B449146002B00DCACE088
:203420003A00520700D110E70F2258463A40042A00D0F9E609E7C046FF07000001FCFFFF14
:20344000FFFFFFFEFE070000FF030000220032436FD0002C00D1C2E0200000F005FA0200E4
:2034600003000B3A1D20821A30001900D04008398C400200224334008C405946CB1A86490B
:203480008B469B440A2D00DDA4E64946009B01945940CBB2140000200393022D00DD67E6E6
:2034A000FBE65346034398463CD05346002B00D1A3E0504600F0D8F90B235B429C46020044
:2034C000844411005046083988401D23804660461B1A2000D8400300404603439A46230089
:2034E0008B4098466C4B00259B1A9B46002302931AE60F2D00D0C9E0802352461B031A428F
:2035000002D01C4200D192E08024534624031C4324034246240B3EE69B46032380460C2575
:20352000029301E600239A469B46013304250293FAE501210D430A2D00DD4BE6494600987C
:203540004140C9B20391022D00DC96E000230024012001930CE649460223009A2B4351401F
:20356000CAB203920A2B00DD34E6002D57D1039B994600240022494B0EE658460121C91ACB
:20358000382900DD2FE61F2956DD1F2254465242D31ADC40202907D0414B42469C46534636
:2035A000604483401A43904642460721531E9A410B00224313400024114209D00F231340DD
:2035C000042B5DD0111D91429B410A005B425B07D2081A430023DFE5039B9946FAE5019896
:2035E00000F042F902000300153220331C2A00DC38E7019A083882403FE700F035F91523A7
:203600009C4684440200634620321C2B00DC58E7002398462300083883409A4662E71D0034
:203620000023002402200193A2E5029032E61C43009B019A9946AEE51A4B5246C3184046F7
:203640009A40C8400243404698400300581E834154461A43CC40530709D00F231340042BBE
:2036600005D0131D934292415242A4181A00230208D50123002400228EE5894600248BE5F1
:203680000023A5E763076402240BA1E7009BA2469946019B984637E70DFCFFFFFF070000ED
:2036A0003E0400001E04000010B5041E10D000F0DBF80E4B1B1A5B055B0D0A280FDC0B227C
:2036C0002100121AD14015300A038440120B01E0002300221B0513432000190010BD220095
:2036E0000B38824012030024120BF3E71E040000F0B54B000F035B0D3A4C450F83B07F0A73
:203700005E1C2F4300900191CA0FC50026420BD035495C18FE2C13DDFF200023C00518434C
:20372000D207104303B0F0BD3D43002B01D10020F4E7002DF0D08023DB03FF203B43EDE7A6
:20374000002C0CDD009BFF009B01581E8341690F3B430B43590727D1DB08E0B2DEE72100ED
:20376000173131DB80211E2009043943001B1F282DDD02267642341B0E00E6403400202842
:2037800004D01A488446634499400D432B00591E8B412343590703D00F21194004290BD1C0
:2037A0009B0100205B0AB9E70F211940042904D19B015B0AE0B2B1E7002404335901F7D511
:2037C00001340023E0B2A9E700200023A6E7084C1C192B00A540C340A140681E854129436A
:2037E0000B43D7E7FE07000080FCFFFFA2FCFFFF82FCFFFF844608006146FFE71FB500F003
:20380000CDF8002801D40021C8421FBD10B500F055F84042013010BD10B500F0BFF80028C9
:2038200001DB002010BD012010BDC04610B500F0B5F8002801DD002010BD012010BDC04682
:2038400010B500F063F8002801DC002010BD012010BDC04610B500F059F8002801DA002049
:2038600010BD012010BDC0461C2101231B04984201D3000C10391B0A984201D3000A0839E6
:203880001B09984201D30009043902A2105C40187047C046040302020101010100000000DC
:2038A0000000000010B5002903D1FFF7DDFF203002E00800FFF7D8FF10BDC04670B5420033
:2038C0004E024C0045026D0A120EC30F760A240EC90FFF2A10D0FF2C0CD00120A2420AD122
:2038E000B54208D18B420FD0002A04D12800431E984100E0012070BD0120FF2CFBD135432D
:20390000F9D14B401800F6E70020F4E730B5420044024D02C30F4800640A120E6D0A000E79
:20392000C90FFF2A18D0FF280AD0002A1ED100280AD1002D29D0002C2DD14800013830BDC3
:20394000002D25D1002A01D1002CF6D08B4219D001205B421843F2E7002C19D1FF28F7D1A9
:20396000002D15D100208B42F2D1E8E70028EFD08B42EDD18242EBDC04DBAC42E8D800200B
:20398000AC42DCD258000138D9E7002CD7D0DFE702204042D3E78B42DAD1EEE730B54200CF
:2039A00044024D02C30F4800640A120E6D0A000EC90FFF2A17D0FF280AD0002A1BD100281E
:2039C0000AD1002D1DD0002C2DD14800013811E0002D0ED1002A01D1002CF6D08B420CD1B2
:2039E0005800013806E0002C03D1FF2805D1002D15D0022030BD002806D101205B4218431A
:203A0000F8E7002CF6D0F8E78B42F6D18242F4DCE6DBAC42F1D80020AC42EBD2E0E70020A4
:203A20008B42EAD1E6E78B42E7D1F2E700B585B00C22002101A802F0C7FE2448244B0360FC
:203A40008023DB05436000238360C3608022120602610422426103764376033A8276C261A7
:203A6000436283622C21425403630632426335328354C36401F0C6F900281BD1154B019379
:203A800001230293114801A901F032FB002814D1114B01930D4801A901F02AFB00280FD132
:203AA0000E4B0193094801A901F022FB00280AD105B000BD00F0D8FDE0E700F0D5FDE7E77F
:203AC00000F0D2FDECE700F0CFFDF1E788010020002401401000001020000014002000B48A
:203AE00010B588B004001422002103A802F06CFE2268204B9A4201D008B010BD1E4B1A6C51
:203B0000802149030A431A641A6C0A400192019A596B0122114359635B6B1A400292029BA7
:203B2000302303932D3B0493A02003A9C00502F0CDF91248124B03600523436000238360C9
:203B4000C360803303618133FF33436180231B0183612023C36180239B01036201F008FFFB
:203B6000002803D1054B23659C62C5E700F07CFDF8E7C04600240140001002402C01002075
:203B80000800024000B583B0094A916B012319439163926B13400193019B00220121092043
:203BA00001F07EFE092001F07FFE03B000BDC0460010024000B589B01822002102A802F054
:203BC00003FE0E4B596B022211435963596B114001910199586B0121084358635B6B0B4056
:203BE0000093009BA020C0058023836202930391069202A902F0E2FA09B000BD0010024088
:203C0000F0B5C64600B590B01C22002109A802F0DBFD1822002103A802F0D6FD324C636D0B
:203C2000324A13406365636B02252B436363636B2B400293029B80235B0003930495059592
:203C4000012606960796FA3B98460893284F03A9380002F0B3FA80239B0003930495059555
:203C6000069607964346089303A9380002F0A6FAE36B802292031343E363E36B134001931B
:203C8000019B1C4AC521890053581B021B0A535080231B04136000230993174A0A920B9394
:203CA0000C9322220D920E930F93144C09A9200002F00AFB626880239B0413436360E368A6
:203CC0000F4A1340E360E3680E4A1340E36023680D4A1340236023680C4A1340236010B08D
:203CE00080BCB846F0BDC04600100240FFCFFFFF0004005000E100E073216000005400401C
:203D000001F8FFFFFF7FFFFFFFFFF7FFFFFFFDFFF0B5C64600B596B01C2200210FA802F08E
:203D200053FD1822002109A802F04EFD1822002103A802F049FD2023039303A802F080F9BD
:203D4000002866D1344C636B02252B436363636B2B400293029B80235B0009930A950B9517
:203D600001260C960D96FA3B98460E932B4F09A9380002F023FA80239B0009930A950B9597
:203D80000C960D9643460E9309A9380002F016FAE36B802292031343E363E36B1340019372
:203DA000019B1F4AC521890053581B021B0A535080231B04136000230F931A4A109211935B
:203DC0001293194D2A785200139214931593174C0FA9200002F078FA626880239B041343EF
:203DE0006360E368124A1340E360E368114A1340E3602368104A1340236023680F4A134095
:203E000023602878C0B200F01BF816B080BCB846F0BD00F029FC95E7001002400004005026
:203E200000E100E073216000B80700200054004001F8FFFFFF7FFFFFFFFFF7FFFFFFFDFFF9
:203E40004000C0B2014B18707047C046FC0100200A4B1A6801210A431A601A6807310A433B
:203E60001A601A6808310A431A601A6870310A431A601A6860390A431A607047005400402F
:203E8000084B1A6808218A431A601A6808318A431A601A6870318A431A601A6860398A4389
:203EA0001A6070470054004010B50C0096239B00994202D8002902D10EE09624A4000028F3
:203EC0000AD0064B22000100180002F0A9FC044B00221A80034B1C8010BDC04600020020FB
:203EE000FA010020F8010020054A138899B201339BB21380034B5B6ADBB2034A53547047FA
:203F0000FE01002000540040580400200B4A13889BB20B49CB5CDBB20A498B62138801331E
:203F20009BB21380128892B2074B1B889BB29A4202D3024B00221A807047C046FA010020EF
:203F40000002002000540040F801002070B5534B1A6801321A601A68514B9A4214D8514B1E
:203F60009B691B0728D54F4B9B695B0C5B00FF2213404D4A1278D2B29A4230D0494AD369FA
:203F800008210B43D36170BD464C200002F072F96368464A134063602368012293432360C2
:203FA0002368073293432360FFF7B2FEFFF750FF3A4B00221A60D2E73A4B9B69DB0645D49C
:203FC000384B9B699B0747D4364B9B695B0746D4344B9B699B0645D4324B9B69D3E7344BA5
:203FE0001B889BB2002B10D12E4B9B69DB0319D42C4BDA6908210A43DA611A6804390A4306
:204000001A602C4B01221A60BDE7FFF739FF284C218889B2284800F0BDF800232380FFF717
:2040200017FFE1E71F4B9B69DB0309D51D4BDA6908210A43DA611A6806390A431A60A2E70B
:20404000184AD36908210B43D3619CE7154AD36910210B43D36196E7FFF758FF93E7FFF70C
:2040600043FF90E70F4BDA6920210A43DA619B69DB0702D40B4B01229A61FFF701FF0C4DA2
:20408000298889B20C4800F085F800242C80FFF7DFFE084B1C60094B1C6074E7F4010020C1
:2040A000E02E000000540040FC010020FFFFFFFDFE010020F001002058040020EC0100208E
:2040C0000B4B0C4A1A600C4A1A6002225A600B4A9A6002E00023012B05D0054BDB685B07C2
:2040E000F8D10123F7E7024B054A1A607047C04600300040CCCC000055550000FF0F000062
:20410000AAAA0000BFF34F8F034B044ADA60BFF34F8FC046FDE7C04600ED00E00400FA0595
:2041200010B500F0B1FCFF2813D00C4B18700C490B785A01D21A92009B18DB00094A13602F
:204140004B785A01D21A92009B18DB00064A136010BD024B11221A70E9E7C046B8070020E6
:20416000C8000020B8060020B406002010B51C00431A0298001B5843511AFDF74BFC001952
:20418000844203DC029B834202DB0400200010BD029CFBE770B590B005000C001022002101
:2041A000684602F011FB012C0CD92A78012A0ED91300103BDBB2012B36D9FF2A6AD0FD2ADD
:2041C00000D180E0012C00D186E010B070BD032CEED8002308E0591CD3186E5C0CA8C65465
:2041E00001206E46F0540B00611E9942F3DC6B461B78002B0DD00CAB1A78894B1B78DBB2E9
:204200009A4206D0022A04D8864B01211970844B1A706B465B78002BD4D00CAB5B78012B06
:20422000D0D8814A1370CDE7032CC6D80023611E99420ADD591CD318103B6E5C0CA8C65460
:2042400001206E46F0540B00F1E76B461B78002B0DD00CAB1B781D2B09D9744A13701378D6
:204260005A01D21A92009B18DB00714A13606B465B78002BA6D00CAB5B78042BA2D96B4A9B
:20428000537053785A01D21A92009B18DB00694A136097E7022C00D091E76A781300083BD7
:2042A000DBB26F2B00D98DE7634B1B78DBB29A4200D187E7604B1A701878C0B200F0EAFB95
:2042C000FFF726FD7EE7022C00D07BE76B78002B00D177E7FFF716FF2B78012B1AD9112BBA
:2042E00028D9202B33D0312B39D9402B47D0502B4DD0602B53D9702B61D9852B6ED9FE2B3B
:2043000000D188E0FF2B00D05FE74B480121FFF7CBFD5AE70221C91AC9B2414B1B7804A824
:204320000370414B1B78437002235B1AC018FFF7BBFD4AE71221C91AC9B204A83B4B1B8881
:20434000038002235B1AC018FFF7AEFD3DE73B4B1B7804A803700121FFF7A6FD35E7322141
:20436000C91AC9B2364B1A8804A802701B881B0A437002235B1AC018FFF796FD25E7314BA0
:204380001B7804A803700121FFF78EFD1DE72E4B1B7804A803700121FFF786FD15E762217F
:2043A000C91AC9B2294B1A8804A802701B881B0A437002235B1AC018FFF776FD05E7722196
:2043C000C91AC9B2224A107804AB187052785A700222521A9818FFF767FDF6E67A21494224
:2043E000C91AC9B21B4A108804AB18701288120A5A70194A108898701288120ADA70174A47
:20440000108818711288120A5A710622521A9818FFF74AFDD9E612480121FFF745FDD4E64C
:20442000CA070020C0060020C9070020C8000020B8060020B4060020B8070020C807002047
:20444000C6070020C5070020C4070020C2070020C0070020BE070020BC070020BA0700201F
:20446000C400002082B080229205002307E099000C4884466144096802C20133DBB22F2B37
:20448000F5D9094A116C012319431164126C13400193019B054A136803210B43136002B027
:2044A0007047C046001800080010024000000140F0B5CE46474680B58BB004001822002177
:2044C00004A802F081F9200001F0A0F8002415E0544BA200D55803212000FDF797FAC9B250
:2044E000C90004AB9C4661440A684B682E00002792197B410A604B600134E4B23B2CE7D9D5
:20450000494B1888FEF78EF94849FDF7ADFD041C08980999FDF7A2FB4549FDF78FFC011C9F
:20452000201CFDF78BFCFDF781FB03900498059914220023FDF75AFB84B23E4B99461C80AB
:204540003D4FFF25009500233A0000212000FFF70DFEC0B2394B1870394E34800698079980
:2045600014220023FDF742FB84B24B461C80009500233A0000212000FFF7F8FDC0B2314B42
:204580001870314F3C80039883B2304A90461380FEF798F9041C308880B2FEF793F9011C76
:2045A000201CFDF761FD2A49FDF748FCFDF73EFB43009BB2274A1380388880B2FEF782F99F
:2045C000011C201CFDF750FD2149FDF737FCFDF72DFB80B2204D28804346188880B2FEF7FD
:2045E00021F91E49FDF740FD041C288880B2FEF719F9011C201CFDF721FC1849FDF78EFEB5
:20460000FEF7F0F80312DBB2154A5370C0B21070044914483C2200F051FF0BB0C0BCB9468A
:20462000B046F0BDC8060020AA75FF1F00803B450000A041B2060020FF0F0000C8070020F6
:20464000C6070020C4070020C2070020BE07002000F07F45BC070020BA0700200000FA44FE
:20466000C00700208801002072B6FEE710B5374A136807218B4305390B431360334B1A68E7
:2046800007231340022BF9D1314A1168FE330B43136001E0012A09D02D4B19688023DB0064
:2046A0000A001A401942F5D00122F3E728490B6E012003430B6601E0012B08D0244B196EDC
:2046C000022003000B400842F6D01300F4E7204AD0682049084020490143D1601068802122
:2046E000490401431160D068802149050143D16001E0012809D0164A116880229204080020
:2047000010401142F5D01800F3E7114A936813490B409360936807218B4305390B439360DF
:204720000B4B9A6838231340102BF9D1084A93680B490B4093600B4802F040F8032000F0FF
:20474000FDFA002800D110BDFFF78EFF00200240001002408C80FF1F02080020FFF0FFFF24
:20476000FF8FFFFF0090D00330B583B0FFF77AFEFFF7D6FC00F00EFBFFF778FFFFF71AFA8C
:20478000FFF700FAFFF73CFAFFF750F900F01AFAFFF796FCFFF7BCFAFFF75AFB824C626C9F
:2047A00080231B02134363642368012213432360236A134323627D4D280000F069FF7C491E
:2047C0003C22280000F07AFEA023DB0580229A620023636350E000F0FDFA764B1B6898428C
:2047E00056D9754A13680133136000F0F3FA0A30704B18604CE0714C200001F03BFD636862
:204800006F4A1340636023680122934323602368073293432360FFF77BFAFFF719FB0A2006
:2048200000F0DEFA38E0674B1B78002B11D0664B188880B2FA239B0000930023634A002188
:20484000FFF794FC624B18800004000C564B586329E0554B00225A6325E0A023DB0580224F
:204860009A615C4B1B78012B34D0564B1B78002B3AD0594B594A1A60524B1B78DBB2584A4A
:204880001370584B00221A60574B1B68002BA2D1494B1B68322BAED8544B1B78002BC2D1A9
:2048A000414B00225A63524B1B78DAB2012BD4D0022A25D0002ADCD1A023DB0580329A62B8
:2048C000444B1B78012BD4D1424B00221A703D4B1A70CEE73F4B00241C7000F07BFA454BB6
:2048E0001860384B1C70C4E700F074FA414B1B68C01A414B9842BCD9324B01221A70B8E77B
:20490000344B1B78012B1AD03C4B1B68002B22D0012BAED1A023DB0580229A6200F05AFA18
:20492000344B1B68C01A364B1B689842A1D9334B00221A6000F04EFA2E4B186099E7254B10
:2049400000241C7000F046FA2A4B18602B4B1C601C4B1C70D8E7A023DB0580229A61194B42
:204960001B78002B14D000F035FA224B1B68C01A244B1B68984200D87BE7204B01221A609E
:2049800000F028FA1B4B18600E4B00221A7070E700F020FA174B1B68C01A174B9842E2D90B
:2049A000084B01221A70DEE7002C014088010020C8060020C4060020EC01002000540040A3
:2049C000FFFFFFFDC1060020C607002098080000B0060020C006002000300040AAAA0000E9
:2049E000C5070020F4010020F0010020C9070020CA070020BC060020204E0000C000002094
:204A0000B4060020B8060020F8231B069C466044C00A704710B50368C900FF248C40A343CD
:204A200003608A401343036010BD0068704710B586B00023059302330193FFF7E5FF0390B8
:204A40000123049301F050F905A901A801F0FAF9040001F0C9F9002C02D0002006B010BDCE
:204A60000120FBE770B504000D0001F03DF92A0000232100012001F085F9040001F0B4F936
:204A800063425C41E0B270BD014B1878C0B270470078000830B583B0040072B60D4D2800CA
:204AA000FFF7C3FF01902200002101A8FFF7B2FF2800FFF7BCFF01990648FFF7D3FF012868
:204AC000F9D162B6FFF7E0FF001B43425841C0B203B030BD0078000800B583B00D4B196C8F
:204AE000012211431964196C0A400092009ADA6B802149050A43DA63DB6B0B400193019B48
:204B000000220021032000F0CBFE032000F0CCFE03B000BD00100240FEE7FEE7704770479F
:204B200010B500F04BF910BD10B501F07DF810BD10B5024801F002F810BDC0462C0100209D
:204B40007047000080235B00994226D00CD8102925D005D8012924D0042924D1012210E08D
:204B6000402922D103220CE080235B0199421ED080235B0299421CD08023DB0099421AD1F5
:204B8000052218300D4B9B5CC01803680C49895C04228A409343036070470422F1E70222D8
:204BA000EFE70022EDE70822EBE70822E9E70622E7E70722E5E70822E3E7C046E8680008F6
:204BC000DC680008F0B5A3B01DAC14220021200001F0FAFD2022002115A801F0F5FD302214
:204BE000002109A801F0F0FD1822002103A801F0EBFD384E336C8022120113433364336CC0
:204C000013400293029B40232380FA239B001F93314D2100280001F015FD2B688027BB439D
:204C20002B60AB682D4A1340AB602D4A136808210B431360602315930024169417941894D5
:204C400019941A941B941C9415AA0739280001F039FD01212800FFF775FF6B68702293435D
:204C60006B606B681F4A13406B60AB68BB43AB6009940A940B946B4630229B181C706B4626
:204C80005C8680239B010D930E940F94109480239B04119312941394149409A9280001F0C4
:204CA0003FFD726B01231A437263726B13400193019B80235B000393FE3B0493059406948E
:204CC00007940893A02003A9C00501F077FA23B0F0BDC04600100240002C0140F8BFFEFF12
:204CE000182C0140FFFF0FFF0D488546FFF728FF0C480D490D4A002302E0D458C450043369
:204D0000C4188C42F9D30A4A0A4C002301E013600432A242FBD301F05FFDFFF725FDFEE7CA
:204D200000200020C0000020100100200469000810010020EC070020FEE7000010B50400BB
:204D4000114B1978002901D1012010BDFA208000FCF7D6FD01000D4B1868FCF7D1FD00F093
:204D6000AFFD00280DD1032C01D90120EDE7013000222100404200F093FD054B1C60002021
:204D8000E3E70120E1E7C046D0000020CC000020D400002010B5084A116880235B000B43AE
:204DA00013600320FFF7CAFF041E02D00124200010BDFFF791FEFAE700200240034B1B78EF
:204DC000034A11685B1813607047C046D0000020CC070020014B18687047C046CC0700200B
:204DE00070B50400FFF7F6FF0500631C02D0044B1B78E418FFF7EEFF401BA042FAD370BD51
:204E0000D000002030B583B0040000230193002800D106E1836D002B13D023689A68D20092
:204E20001CD49968804A1140802252050A439A607E4B18687E49FCF763FD013040000190C1
:204E400009E0FEF74DFE0023E3655422A354E4E7019B013B0193019B002BF9D123689A68FC
:204E6000D20000D59DE0A26D10210A43A265E26D0F390A43E26501209A6804210D001540A5
:204E8000114200D00125A26DD20600D5C2E0002D00D0BFE0A26D67490A400631FF310A4312
:204EA000A2659A68D20752D4A268217E89030A43617EC9030A43A57E69030A43216B0029DF
:204EC00001D0802149010A43E1680A432169002969DB802189030A432C21615C49000A4322
:204EE0002021615C012961D0616A002905D0E0256D002940A56A29430A43D9684E4D2940A8
:204F00000A43DA6063689B0F9B07E26C1A433C21615C012959D021680B69484D2B40134388
:204F20000B616368C0221206934210D08022D20593420CD080221206934208D040490A68FF
:204F4000404D2A40F025AD032B4013430B602168636B4A690725AA4313434B612168A26BAE
:204F60004B696935AB43120113434B612369002B35D12268916A103B0B43936223685A69BE
:204F800007231340626B9A423BD0A36D12229343023A1343A365E36D0F3A1343E3650120D4
:204FA0003DE0002068E74900490894E7002D03D1802149020A4397E7A16D20252943A165D3
:204FC000E16D1F3D2943E1658EE7216C0B43616C0B43A16C0B43134301221A439BE78022B5
:204FE00092039342CAD121688B6AE369013B9B001C221A4010235B429340226E13438B62FD
:20500000BCE70023E365A36D03229343023A1343A36504E0A36D10221343A365012003B085
:2050200030BD0120FBE7C046E8FFFF6FCC000020400D0300FDFEFFFF0102DEFF02FCFF1FF4
:2050400008270140FFFFC3FF704710B5806AFFF7FBFF10BD704710B5806A836D40221343EF
:205060008365C36D3C3A1343C365FFF7F3FF10BD10B50300806A826D502111422AD1826D20
:2050800080239B00134383650368D968C0221201114213D1827E002A10D11A6812070DD534
:2050A0009A6852070DD45A680C218A435A60836D0E4A13400432FF3213438365FFF7F8F917
:2050C00010BD836D202213438365C36D1F3A1343C365F3E7826DD20604D4026D526B1800CF
:2050E0009047EDE7FFF7B6FFEAE7C046FEFEFFFFF0B583B004000023019305695433C35CE2
:20510000012B00D12FE154230122C25400688368033216001E401A4209D0A36D1C321343ED
:20512000A365012054230022E25403B0F0BD4B68022B00D1D5E080221206954225D08B4A56
:20514000954222D0226E1F271F400F25BD40AA430B685D032FD19B0E1F261E40BE403243A1
:2051600022664D68AB080133E269934213D80E68826A1F231D40103B1F00AF40BA43B60EE5
:205180003340AB401343836205E00B68826A5B035B0B1343836220680B688D6842691B027B
:2051A0009A432B40724D2B40134343610B68002B4FDB0020B6E7DD07D0D49D0727D45D0773
:2051C00027D41D0727D4DD0627D49D0627D45D0627D41D0627D4DD0527D49D0527D45D05E1
:2051E00027D41D0527D4DD0427D49D0427D45D0427D41D0427D4DD0327D49D0327D480258C
:20520000ED021E002E402B42A8D01226A6E70126A4E70226A2E70326A0E704269EE705267C
:205220009CE706269AE7072698E7082696E7092694E70A2692E70B2690E70C268EE70D2612
:205240008CE70E268AE70F2688E7102686E7112684E7484A1168E02252040A40464883424D
:2052600007D04648834222D0454883422CD0002058E70802F5D480231B0413433D490A6882
:205280004048024013430B603F4B18683F49FCF737FB013043001B189B00019302E0019B78
:2052A000013B0193019B002BF9D100203AE7C801DAD480235B0413432E490A6831480240D9
:2052C00013430B6000202DE749024AD48023DB03134328490A682B48024013430B60002020
:2052E00020E780231B069D4202D0204B9D4205D10B68826A5B035B0B9A4382620B68002B90
:2053000001DB00200EE71B4A12681B498B4207D01A498B420FD01A498B4217D0002001E787
:20532000A0235B041A4013490B68164803401A430A600020F6E6C0231B041A400D490B6899
:20534000104803401A430A600020EBE6C0235B041A4008490B680B4803401A430A6000201D
:20536000E0E60020DEE60220DFE6C0460400008000FFFF0708270140001000B0004000B8E5
:20538000002000B4FFFF3FFECC000020400D030070B50400026893685B0724D593689B073C
:2053A00005D4936811490B4010210B439360FFF711FD050023689B685B0712D5FFF70AFD25
:2053C000401B0228F6D923689B685B07F2D5A36D10221343A365E36D0F3A1343E3650120CA
:2053E00002E0002000E0002070BDC046E8FFFF7F30B583B004000023019303689A68D207FA
:205400004FD49968284A114211D19A6827490A4001210A439A60264B1B681B0217D5254B2F
:2054200018682549FCF76CFA013001900CE0836D102213438365C36D0F3A1343C3650120FF
:2054400030E0019B013B0193019B002BF9D1637E012B01D1002025E0FFF7BCFC05002368FD
:205460001A68D2071BD49A68D20705D49A680F490A4001210A439A60FFF7ACFC401B0228FE
:20548000EDD923681B68DB07E9D4A36D10221343A365E36D0F3A1343E365012002E000209F
:2054A00000E0002003B030BD17000080E8FFFF7F08270140CC000020400D030070B504007B
:2054C0000D001600026893685B0747D45423C35C012B45D0012354214354D1680B420DD15C
:2054E0009368DB0705D593681E490B4002210B4393602268D36801210B43D3602000FFF766
:2055000077FF00282BD1A26D174B1A4080235B001343A3650023E365226D1449D162226DB1
:2055200013491163226D1349516322681C2111605422A354226853680C390B435360216843
:205540004031206D33002A0000F06AFA2268936804490B4004210B43936000E0022070BDEA
:205560000220FCE7E8FFFF7FFEF0FFFF715000084B5000085750000870B5040003689A6824
:20558000022108001040114200D001209A68D20735D5002835D1996805220A40012A09D0C3
:2055A000A36D10221343A365E36D0F3A1343E365012025E09A6814490A4002210A439A60DB
:2055C000236803221A60FFF705FC050023689B68DB0712D5FFF7FEFB401B0228F6D9236880
:2055E0009B68DB07F2D5A36D10221343A365E36D0F3A1343E365012002E0002000E0002005
:2056000070BD0020FCE7C046E8FFFF7F70B504005423C35C012B36D054230122C254FFF758
:20562000B7FE051E1DD1206D2523C35C022B1DD02268536810218B435360002D1FD1200062
:20564000FFF79AFF0500002D06D1A36D0F4A13400432FF321343A3652268D36801218B437C
:20566000D36054230022E254280070BD00F026FA051EDDD0A36D40221343A365D8E7200044
:20568000FFF77AFFDFE70225EEE7C046FEFEFFFFF0B583B00400002301935433C35C012B74
:2056A00000D1A2E001265423C654FFF765FF050023689A6831001140164209D0A36D1022FE
:2056C0001343A36554230022E254280003B0F0BDA26D474802400630FF300243A265DE683E
:2056E000444A1640DA6844480240DA60080005E0B4229A587F231340C018013107291CD8A4
:205700002768BA683D4B1A4018331343BB6023689A68002AECDA019B01330193019A384B3B
:205720009A42F4D9A36D12229343023A1343A36554230022E2540125C7E7FCF7E1F8226813
:2057400093682E490B4001210B439360226811698023DB05994217D22A4B1B68F021890349
:205760000B40E02149038B420ED39B0C033B012199400091009B5B08009302E0009B013B28
:205780000093009B002BF9D1B42153587F27BB43184350502268936818490B4002210B4325
:2057A0009360FFF717FB070023689A68D20709D4DA683243DA60A36D03229343023A134316
:2057C000A3657FE7FFF706FBC01B0228ECD923689B68DB07E8D5A36D10221343A365E36D7D
:2057E0000F3A1343E36501256FE702256DE7C046FDFEFFFF03800000FC7FFFFFE8FFFF7F6B
:20580000FFF102000827014070B5002811DB8308134DC0339B005C5903221040C000FC325C
:2058200016008640B44389010A40824022435A5170BD0F230340083B9B0806339B00094A40
:20584000944663445C6803221040C000FC3215008540AC4389010A40824022435A60E7E754
:2058600000E100E000ED00E0013880235B0498420FD2094A50600948036A1B021B0AC021C0
:2058800009060B4303620023936007331360002070470120FCE7C04610E000E000ED00E005
:2058A00010B5FFF7B1FF10BD002805DB1F22024001239340014A13607047C04600E100E0F2
:2058C00010B5FFF7D1FF10BDF0B5846CC56C6560046D002C02D0446D856D65600B4F7C68D0
:2058E000056C1C262E400125B5402C437C60046863608368102B04D0036899600368DA60EF
:20590000F0BD03689A600368D960F9E70000024010B50400036C9B08094A944663449B0065
:2059200043640368FF20184008381421FBF7E8FF044BA3641F2318401E3B8340E36410BD70
:20594000008200108008024042683F231340064A9A1892000265054A4265013B03221A40E0
:2059600001239340836570473F8200104009024070B5041E4DD00568274BE8181421FBF7CB
:20598000BFFF8000206425230222E2542B68234A13402B6021680A68A368E06803432069A8
:2059A000034360690343A0690343E0690343206A034313430B602000FFF7AAFFA2688023B7
:2059C000DB019A4218D06168626C3F230B401360A36CE26C5A606368013B032B0FD9002319
:2059E00023656365A3650023E36325220121A154013AA354002070BD00236360E3E7200039
:205A0000FFF7A2FF236D00221A60636DA26D5A60E9E70120EFE7C046F8FFFDBF0F80FFFF1D
:205A200070B504002420205C012845D02420012525540130205C012806D08023E3635C3B30
:205A40000022E254012070BD2430013525540020E063256828680126B04328602000FFF765
:205A600033FF236B002B1CD0226813680E210B431360626C1368DB0304D5116880235B00E3
:205A80000B431360236D002B04D01968802252000A431A602268136801210B431360002072
:205AA000D1E72268136804218B4313602268136806310B431360DCE70220C4E730B5002829
:205AC00036D02523C35C022B06D00423C36320330022C254012030BD026813680E218B438E
:205AE0001360426C136813490B40136001680A6801239A430A60104C6268056C1C2129406D
:205B00008B4013436360836CC26C5A60036D002B06D01A6807490A401A60436D826D5A606A
:205B200025230122C254013B0022C2540020D2E70120D0E7FFFEFFFF0000024070B5314BE1
:205B4000196804682568026C1C23134004229A40114216D06A0714D523689B0603D42368AA
:205B6000042293432360274C6368026C1C21114004228A4013436360036B002B00D098471B
:205B800070BD02229A4011421CD0AA071AD523689B0606D423680A22934323602523093A5A
:205BA000C254184C6368026C1C21114002228A401343636024230022C254C36A002BDFD017
:205BC0009847DDE708229A401142D9D02D07D7D523680E22934323600A4C6268036C1C2162
:205BE000194001231D008D402A436260C3632522835423330022C254436B002BC0D09847F5
:205C0000BEE7C0460000024030B5054C61690125294361610260BFF36F8F436030BDC0469B
:205C2000002002407047704710B52A4B1B692A4A13402A4A9268510721D5284A1469002B39
:205C40002AD1244B1B69DB070CD5224B01221A61224B9B68022B2CD0204B00229A60200048
:205C6000FFF7E0FF1D4B9B68002B07D1194A53691B490B405361194B00221A7010BD154825
:205C800041699143416117490A4202D0134AD468D5E7124A5469D2E7104A51680B4353602B
:205CA0000C4B0D491961002393602000FFF7BBFFC7E70A4A9369013B9361002B03D1074B58
:205CC00000229A60CBE7516901315161106900F0A9F8C4E700200240FA830000D0070020CD
:205CE000FFFFFFFC01000400084B5B69002B01DB00207047054B064A9A60064A9A605B6909
:205D0000002B01DB0020F4E70120F2E70020024023016745AB89EFCD70B50400FFF75AF8F4
:205D20000500144B1B69DB0308D5631CF9D0FFF751F8401BA042F4D303201AE00D490A694F
:205D40000D4B16001E400D4808611A420CD1094B1B695B030CD5631CF9D0FFF73BF8401B9D
:205D6000A042F4D3032004E0054B5E60012000E0002070BD00200240FA830000FB830000BA
:205D8000D0070020F8B507000C0015001E00144B1B78012B22D0124B01221A7000225A6023
:205DA000FA208000FFF7B8FF00280DD1012F0FD02900200000F04CFDFA208000FFF7ACFFCA
:205DC000084A5369BB435361054B00221A70F8BD2A0033002000FFF717FFEDE70220F6E7F6
:205DE000D00700200020024010B5FA208000FFF793FF064B5969802212060A435A615B69CA
:205E0000002B01DB012010BD0020FCE700200240034A536903438020400218435061704734
:205E200000200240044A536904480340C9001943034B0B43536170470020024007E0FFFFF4
:205E40000200010070B504000E001E4B1B78012B36D01C4B01221A7000225A60FA20800050
:205E6000FFF75AFF002827D1042363602368042B14D001235B423360A568A368E2689B18C2
:205E8000AB4214D960682900FFF7CCFFFA208000FFF742FF002809D10135EEE70430FFF76E
:205EA000B7FFFA208000FFF737FF05E03560064A536902218B435361024B00221A7070BD15
:205EC0000220FCE7D007002000200240F0B5002359E086685F000324BC40A643CC68BC40DA
:205EE00034438460446894434E683609012232409A402243426056E0DE080836B6003758BA
:205F000005321A4092000F249440A7430C69944022003A43325059E0032600E00026A640B5
:205F200034003C43424E1832920094513768EA433E00AE434C68E40201D53E002E433C4CBB
:205F4000266067683E0016404C68A40201D53E002E43374C66608426A7593E0016404C683E
:205F6000A40301D53E002E43314C8427E6518026A65932404C68E40301D52A0032432C4DF6
:205F800080242A5101330C682200DA404ED001229A40250015401442F4D04E6803243440FE
:205FA000013C012C95D94C6803222240032A08D0C4685E000322B24094438A68B240224308
:205FC000C2604C6803222240022A95D004685E0003221700B740BC434F683A40B24022434F
:205FE00002604C68C02292021442CBD09A0814001834A4000E4EA75903241C40E4000F2686
:20600000A640B743A026F605B04287D0094EB04208D0094EB04207D0084EB04200D17BE7DA
:2060200005267CE701267AE7022678E7F0BDC046001802400004005000080050000C0050AE
:20604000F0B583B0040003689B0362D5534BDB6BDB001ED4514BDA6B802149050A43DA6319
:20606000DB6B0B400193019B01264D4A116880235B000B431360FEF7ADFE0500484B1B68AE
:20608000DB0508D4FEF7A6FE401B0228F6D9032502E00026E9E70025002D23D13F4BD96D41
:2060A000C02292000B001340114212D062699A420DD03A4AD36D3B490B40D06D8021490299
:2060C0000143D165D16D38480140D165D365DB0710D4002D06D1314AD36D32490B406169C4
:2060E0000B43D365012E15D12C4AD36B2F490B40D3630FE0FEF76EFE0700284BDB6D9B07A4
:20610000E7D4FEF767FEC01B294B9842F5D90325DFE700252368DB0706D5204A536D0321CA
:206120008B4361680B43536523689B0606D51B4A536D20490B40A1680B43536523685B04E9
:206140000BD5164A536D9B009B0821690B43536522698023DB059A4211D023681B050BD51B
:206160000E4A536D14490B40E1680B435365E2688023DB019A4209D0280003B0F0BD074AB9
:20618000D16880235B020B43D360E6E7034AD16880235B020B43D360EEE7C0460010024044
:2061A00000700040FFFCFFFFFFFFFEFFFFFFFFEF88130000FFCFFFFFFF3FFFFFF0B50022E5
:2061C00016E00B699C46C4682B006B435E00F618F743B44366465E433443C4604C68022C07
:2061E00025D04D6804683C406B432343036001320C682300D3403AD00123934025001D4036
:206200001C42F4D04B68013B012BDAD88F6883682C006C4366003619B3437C43234383601F
:20622000CC684368AB436C4323434360C9E7FF2D0DD84C69A446066A1C006C436C43250169
:206240002D1BAE4365466C4334430462C9E74C69A446466A2D0A2C006C436C436C43250139
:206260002D1BAE4365466C4334434462B9E70020F0BD00000F4B984204D00F4B98420DD0E8
:20628000012070470D4BD96A802292030A43DA62DA6A0B490A40DA620020F2E7074BD96A1F
:2062A0008022D2030A43DA62DA6A06490A40DA620020E6E70054004000580040001002405A
:2062C000FFFFDFFFFFFFBFFF70B503680125AB4303608A68CC680368164E3340240222432C
:2062E000134303604B68036103682B4303608368114A134083600A698C698368DB0ADB0201
:206300002243134383600B69002B04D0826880231B02134383600B680268084C22401343A0
:2063200003604B69426804490A4013434360002070BDC046FFE0FFFFFF7FFFFFFFFFCFFF94
:2063400070B5036A0126B3430362036A45688269164C22400C681443022293430A691343D2
:20636000B3434A681343124A904205D0114A904202D0114A904212D1082293434A699200C8
:206380001343042293438A68920013430B4A2A408D692A430A4D2A40CD696D00154345604E
:2063A0008461CA6842630362002070BD8CFFFEFF002C01400044014000480140FFFEFFFF71
:2063C000FFFDFFFF70B5036A1026B3430362036A44688269184D2A400D682D022A43202577
:2063E000AB430D692D012B43B3434D682D012B43124DA84205D0124DA84202D0114DA842D5
:2064000013D18025AB434D69AD012B434025AB438D68AD012B430C4D25408C69A400254310
:206420000A4C2540CC69E4002C4344608261CA6882630362002070BDFF8CFFFE002C0140D4
:206440000044014000480140FFFBFFFFFFF7FFFF70B5036A1B4E33400362036A4468C2692B
:20646000194D2A400D682A43184D2B400D692D022B4333404D682D022B43154DA84205D0A1
:20648000144DA84202D0144DA84213D1134D1D404B699B021D43124B1D408B689B022B438A
:2064A000104D25408C69240125430F4C2540CC6964012C434460C261CA68C263036200202C
:2064C00070BDC046FFFEFFFF8CFFFEFFFFFDFFFF002C01400044014000480140FFF7FFFF9D
:2064E000FFFBFFFFFFEFFFFFFFDFFFFF70B5036A144E33400362036A4468C269124D2A4003
:206500000D682D022A43114D2B400D692D032B4333404D682D032B430D4DA84205D00D4D54
:20652000A84202D00C4DA84204D10C4D25408C69A4012C434460C261CA68026403620020DC
:2065400070BDC046FFEFFFFFFF8CFFFEFFDFFFFF002C01400044014000480140FFBFFFFF81
:2065600030B5036A144D2B400362036A426D134C22400C682243124C23400C69240423431E
:206580002B404C68240423430E4CA04205D00E4CA04202D00D4CA04206D14468064D2C40B2
:2065A0008D692D022C4344604265CA68816D82650362002030BDC046FFFFFEFF8FFFFEFFF7
:2065C000FFFFFDFF002C0140004401400048014030B5036A144D2B400362036A426D134C48
:2065E00022400C6824022243114C23400C69240523432B404C68240523430E4CA04205D0B7
:206600000D4CA04202D00D4CA04206D144680C4D2C408D69AD022C4344604265CA68C26532
:206620000362002030BDC046FFFFEFFFFF8FFFFEFFFFDFFF002C0140004401400048014014
:20664000FFFFFBFF0368194A904202D0184A904203D1702293434A681343144A90420BD04D
:20666000134A904208D0134A904205D0124A904202D0124A904203D1114A1340CA681343D7
:2066800003608B68C3620B888362084B984205D0094B984202D0094B984201D10B6903632B
:2066A000436901221343436100207047002C0140000400400020004000440140004801401B
:2066C000FFFCFFFF10B50B00110080225201934220D00CD8102B17D080225200934216D071
:2066E000012B02D1FFF72CFE10BD0120FCE780225202934211D080225203934202D1FFF769
:2067000067FFF1E70120EFE7FFF75CFEECE7FFF79FFEE9E7FFF7EAFEE6E7FFF721FFE3E733
:206720000B7B8A681343194A13404A681343184A13400A681343174A1340CA891343164A93
:2067400013400A691343154A1340CA6A1343144A13404A691343134A13408A691343124AD2
:20676000904202D0436400207047104A13404A6A13430F4A1340CA6913430E4A13400A6AEC
:2067800013430D4A13408A6A1343EBE7FFFBFFFFFFF7FFFFFFEFFFFFFFDFFFFFFFBFFFFF6D
:2067A000FFFFF0FFFFFFFFEF002C0140FFFF0FFFFFFFFFFEFFFFFFFDFFFFFFDF014B1860F2
:2067C0007047C046CC00002003008218934200D1704719700133F9E770B500260C4C0D4D7C
:2067E000641BA410A64209D1002600F023F80A4C0A4D641BA410A64205D170BDB300EB58B2
:2068000098470136EEE7B300EB5898470136F2E7FC680008FC68000800690008FC680008F3
:20682000002310B59A4200D110BDCC5CC4540133F8E70000F8B5C046F8BC08BC9E467047DD
:20684000F8B5C046F8BC08BC9E4670470000000001B40248844601BC604700BFD90000208D
:20686000D21F0008FE1E0008E81E0008641F0008E81E0008981F0008E81E0008641F0008FC
:20688000FE1E0008FE1E0008981F0008641F0008D41E0008D41E0008D41E0008A21F0008AF
:2068A000FE1E0008FE1E0008E81E00083E200008E81E0008981F0008E81E00083E200008DB
:2068C000FE1E0008FE1E0008981F00083E200008D41E0008D41E0008D41E00080000080055
:2068E0000000080008000000000000000404043C3C000000B0B3FF7F01000000E118000821
:20690000B918000801000000010000001E0500000024F400010000000400000010B50C4A41
:2069200054698023DB0223435361EFF3108472B6002303E004C904C00133DBB23F2BF9D9CE
:20694000034B1B69DB03FBD484F3108810BDC04600200240FFFFFFFFFFFFFFFFFFFFFFFF80
:20696000FFFFFFFFFFFFFFFFFFFFFFFFFFFFFFFFFFFFFFFFFFFFFFFFFFFFFFFFFFFFFFFF37
:20698000FFFFFFFFFFFFFFFFFFFFFFFFFFFFFFFFFFFFFFFFFFFFFFFFFFFFFFFFFFFFFFFF17
:2069A000FFFFFFFFFFFFFFFFFFFFFFFFFFFFFFFFFFFFFFFFFFFFFFFFFFFFFFFFFFFFFFFFF7
:2069C000FFFFFFFFFFFFFFFFFFFFFFFFFFFFFFFFFFFFFFFFFFFFFFFFFFFFFFFFFFFFFFFFD7
:2077E000FFFFFFFFFFFFFFFFFFFFFFFFFFFFFFFFFFFFFFFFFFFFFFFFFFFFFFFF5231D71932
:20780000FFFFFFFFFFFFFFFFFFFFFFFFFFFFFFFFFFFFFFFFFFFFFFFFFFFFFFFFFFFFFFFF88
:20782000FFFFFFFFFFFFFFFFFFFFFFFFFFFFFFFFFFFFFFFFFFFFFFFFFFFFFFFFFFFFFFFF68
:20784000FFFFFFFFFFFFFFFFFFFFFFFFFFFFFFFFFFFFFFFFFFFFFFFFFFFFFFFFFFFFFFFF48
:20786000FFFFFFFFFFFFFFFFFFFFFFFFFFFFFFFFFFFFFFFFFFFFFFFFFFFFFFFFFFFFFFFF28
:00000001FF
